:100000001EC02EC02DC02CC02BC02AC029C028C0A5
:1000100027C026C025C024C023C022C021C020C0C4
:100020001FC01EC01DC00205020000000000060F18
:100030001F1F0F0703010C1E1F1F1E1C1810112469
:100040001FBECFEDCDBF10E0A0E6B0E0EAE2F3E0E6
:1000500002C005900D92A436B107D9F7DED063C176
:10006000CFCF662311F0C09A01C0C098C1988A9A78
:100070008B9A8C9A8D9A959894989398929887FDDC
:10008000959A86FD949A85FD939A84FD929A969A04
:1000900000C09698959894989398929883FD959A15
:1000A00082FD949A81FD939A80FD929A969A00C05F
:1000B0009698929A939A949A959A0895882311F013
:1000C000C09A01C0C098C19A8A988B988C988D98D4
:1000D000969A00C0829B02C080E101C080E08399B3
:1000E00080628499806485998068969800C0969A09
:1000F00000C0829981608399826084998460859927
:1001000088609698089580E0D9DF87FDFCCF82E073
:1001100090E00197F1F780E0D1DF08951F93182F49
:10012000F2DF812F60E09DDF1F9108951F93182F4C
:10013000EADF812F61E095DF1F910895662311F4B6
:10014000805801C08054EADF0895DDDF90E0089513
:1001500081E0E4DF089582E0E1DF08951F93182F26
:10016000D2DF1A3041F4803410F080E001C080E426
:100170008058D4DF03C0812F61E073DF1F910895A1
:10018000CF93DF93EC0101C0E9DF89918823E1F788
:10019000DF91CF910895CF93DF93EC0101C0DEDFB3
:1001A000FE01219684918823D1F7DF91CF910895A4
:1001B0001F93182FB89AB99A8E9A8A9A8B9A8C9A0A
:1001C0008D9A80E89EE30197F1F7939A929A969A16
:1001D00000C0969880E893E10197F1F7969A00C0E5
:1001E000969880E490E0FC013197F1F7969A00C070
:1001F0009698FC013197F1F79298969A00C09698DC
:100200000197F1F788E28ADF88E088DFA1DF86E0E6
:1002100085DF812F83DF1F910895CF92DF92EF92C8
:10022000FF920F931F93DF93CF9300D00F92CDB720
:10023000DEB78CE0BDDF8CDF80E470DF06E210E02B
:10024000F801849173DF0F5F1F4FF0E00E331F073B
:10025000B9F719E66E010894C11CD11C84E6E82E9A
:10026000F12C85E060E06ADF80E690E089DF85E0E0
:1002700060E064DF812F90E0B6014AE050E010D0EA
:100280007FDF88EE93E0F7013197F1F70197D9F717
:100290001150E7CF53DF81E061DF82E05FDF089537
:1002A000FB019F01E8944230BCF04532ACF44A3087
:1002B00029F497FB1EF4909581959F4F642F772723
:1002C0001ED0805D8A330CF0895D8193CB0100974D
:1002D000A9F716F45DE251931082C90100C0DC0158
:1002E000FC01672F71917723E1F7329704C07C916D
:1002F0006D9370836291AE17BF07C8F30895AA1B70
:10030000BB1B51E107C0AA1FBB1FA617B70710F000
:10031000A61BB70B881F991F5A95A9F78095909532
:0A032000BC01CD010895F894FFCF51
:04032A00202020006F
:00000001FF
